:100000000C942A000C94B6010C94B6010C94B60121
:100010000C94B6010C94B6010C94B6010C94B60184
:100020000C94B6010C94B6010C94B6010C94B60174
:100030000C94B6010C94B6010C94B6010C94B60164
:100040000C94B6010C94B6010C94B6010C94B60154
:100050000C94B60111241FBECFE5D8E0DEBFCDBFA2
:0C0060000E9436000C943400F894FFCF8E
:10006C0060E070E080E090E00E94440161E070E0AC
:10007C0082E090E00E94660161E070E087E090E031
:10008C000E94660161E070E083E090E00E948801CC
:10009C0000E010E0C0E0D0E0EE24E394F12C80E02E
:1000AC0090E00E94AA01892BD1F080E090E00E94A0
:1000BC00AA01892BD1F7DD230CF453C001151105CE
:1000CC0009F04FC0C330D10541F02196C130D105A4
:1000DC0079F020C0C130D10531F0219746C0C13034
:1000EC00D105C1F405C000E010E002C000E010E052
:1000FC0063E082E090E00E94050163E087E090E01D
:10010C000E94C20064E083E090E00E94C200C1E063
:10011C00D0E0C5CFC230D10581F463E082E090E03D
:10012C000E94C20063E087E090E00E94050164E059
:10013C0083E090E00E94C200B2CFC330D10509F039
:10014C00AECF63E082E090E00E94C20063E087E003
:10015C0090E00E94C20064E083E090E00E94050100
:10016C009ECFC430D1050CF4B5CFC130D10509F404
:08017C00BDCF0E2D1F2DCECFCB
:100184006230B9F018F4613031F008956330F9F059
:10019400643059F108954BB321E030E0B90102C055
:1001A400660F771F8A95E2F7CB01809584238BBB7A
:1001B400089548B321E030E0B90102C0660F771F0B
:1001C4008A95E2F7CB018095842388BB089545B3D3
:1001D40021E030E0B90102C0660F771F8A95E2F78B
:1001E400CB018095842385BB089542B321E030E0A0
:1001F400B90102C0660F771F8A95E2F7CB0180959B
:06020400842382BB089573
:10020A006230B1F018F4613031F008956330E9F0EA
:10021A00643041F108954BB321E030E0B90102C0E6
:10022A00660F771F8A95E2F7CB01842B8BBB089563
:10023A0048B321E030E0B90102C0660F771F8A9502
:10024A00E2F7CB01842B88BB089545B321E030E067
:10025A00B90102C0660F771F8A95E2F7CB01842B9A
:10026A0085BB089542B321E030E0B90102C0660FB0
:0E027A00771F8A95E2F7CB01842B82BB089593
:100288006115710521F06130710579F0089547B362
:1002980021E030E0B90102C0660F771F8A95E2F7C6
:1002A800CB018095842387BB089547B321E030E0D4
:1002B800B90102C0660F771F8A95E2F7CB01842B3C
:0402C80087BB089553
:1002CC006115710521F06130710579F0089544B321
:1002DC0021E030E0B90102C0660F771F8A95E2F782
:1002EC00CB018095842384BB089544B321E030E096
:1002FC00B90102C0660F771F8A95E2F7CB01842BF8
:04030C0084BB089511
:100310006115710521F06130710579F0089541B3DF
:1003200021E030E0B90102C0660F771F8A95E2F73D
:10033000CB018095842381BB089541B321E030E057
:10034000B90102C0660F771F8A95E2F7CB01842BB3
:0403500081BB0895D0
:1003540026B330E0A90102C0559547958A95E2F786
:08036400CA0181709927089578
:04036C000C940000ED
:00000001FF
